{
  "_format": "hh-sol-artifact-1",
  "contractName": "LiquidityPool",
  "sourceName": "contracts/LiquidityPool.sol",
  "abi": [
    {
      "inputs": [
        {
          "internalType": "address",
          "name": "_loanToken",
          "type": "address"
        },
        {
          "internalType": "address",
          "name": "_superToken",
          "type": "address"
        },
        {
          "internalType": "int8",
          "name": "_interestRate",
          "type": "int8"
        }
      ],
      "stateMutability": "nonpayable",
      "type": "constructor"
    },
    {
      "anonymous": false,
      "inputs": [
        {
          "indexed": true,
          "internalType": "address",
          "name": "_liquidityProvider",
          "type": "address"
        },
        {
          "indexed": false,
          "internalType": "uint256",
          "name": "_sharesBurned",
          "type": "uint256"
        }
      ],
      "name": "BurnLpToken",
      "type": "event"
    },
    {
      "anonymous": false,
      "inputs": [
        {
          "indexed": true,
          "internalType": "address",
          "name": "_liquidityProvider",
          "type": "address"
        },
        {
          "indexed": false,
          "internalType": "uint256",
          "name": "_sharesMinted",
          "type": "uint256"
        }
      ],
      "name": "MintLpToken",
      "type": "event"
    },
    {
      "inputs": [
        {
          "internalType": "uint256",
          "name": "_tokenAmount",
          "type": "uint256"
        }
      ],
      "name": "addLiquidity",
      "outputs": [],
      "stateMutability": "nonpayable",
      "type": "function"
    },
    {
      "inputs": [],
      "name": "getInterestRate",
      "outputs": [
        {
          "internalType": "int8",
          "name": "",
          "type": "int8"
        }
      ],
      "stateMutability": "view",
      "type": "function"
    },
    {
      "inputs": [],
      "name": "interestRate",
      "outputs": [
        {
          "internalType": "int8",
          "name": "",
          "type": "int8"
        }
      ],
      "stateMutability": "view",
      "type": "function"
    },
    {
      "inputs": [],
      "name": "loanToken",
      "outputs": [
        {
          "internalType": "contract IERC20",
          "name": "",
          "type": "address"
        }
      ],
      "stateMutability": "view",
      "type": "function"
    },
    {
      "inputs": [
        {
          "internalType": "uint256",
          "name": "_liquidityShares",
          "type": "uint256"
        }
      ],
      "name": "removeLiquidity",
      "outputs": [],
      "stateMutability": "nonpayable",
      "type": "function"
    },
    {
      "inputs": [],
      "name": "superToken",
      "outputs": [
        {
          "internalType": "contract ISuperToken",
          "name": "",
          "type": "address"
        }
      ],
      "stateMutability": "view",
      "type": "function"
    },
    {
      "inputs": [],
      "name": "totalLiquidity",
      "outputs": [
        {
          "internalType": "uint256",
          "name": "",
          "type": "uint256"
        }
      ],
      "stateMutability": "view",
      "type": "function"
    },
    {
      "inputs": [
        {
          "internalType": "address",
          "name": "",
          "type": "address"
        }
      ],
      "name": "userLiquidity",
      "outputs": [
        {
          "internalType": "uint256",
          "name": "",
          "type": "uint256"
        }
      ],
      "stateMutability": "view",
      "type": "function"
    }
  ],
  "bytecode": "0x60e06040523480156200001157600080fd5b50604051620010733803806200107383398181016040528101906200003791906200015e565b8273ffffffffffffffffffffffffffffffffffffffff1660808173ffffffffffffffffffffffffffffffffffffffff16815250508173ffffffffffffffffffffffffffffffffffffffff1660a08173ffffffffffffffffffffffffffffffffffffffff16815250508060000b60c08160000b81525050505050620001ba565b600080fd5b600073ffffffffffffffffffffffffffffffffffffffff82169050919050565b6000620000e882620000bb565b9050919050565b620000fa81620000db565b81146200010657600080fd5b50565b6000815190506200011a81620000ef565b92915050565b60008160000b9050919050565b620001388162000120565b81146200014457600080fd5b50565b60008151905062000158816200012d565b92915050565b6000806000606084860312156200017a5762000179620000b6565b5b60006200018a8682870162000109565b93505060206200019d8682870162000109565b9250506040620001b08682870162000147565b9150509250925092565b60805160a05160c051610e666200020d6000396000818161036001526103860152600081816101b70152818161051c01526105d501526000818161018d0152818161021e015261047b0152610e666000f3fe608060405234801561001057600080fd5b50600436106100885760003560e01c80635257b5661161005b5780635257b566146101035780637c3a00fd146101215780639c8f9f231461013f578063ba4c28c31461015b57610088565b806306d378171461008d57806315770f92146100ab5780632b4116f7146100c957806351c6590a146100e7575b600080fd5b61009561018b565b6040516100a29190610840565b60405180910390f35b6100b36101af565b6040516100c09190610874565b60405180910390f35b6100d16101b5565b6040516100de91906108b0565b60405180910390f35b61010160048036038101906100fc91906108fc565b6101d9565b005b61010b61035c565b6040516101189190610945565b60405180910390f35b610129610384565b6040516101369190610945565b60405180910390f35b610159600480360381019061015491906108fc565b6103a8565b005b6101756004803603810190610170919061099e565b6106c5565b6040516101829190610874565b60405180910390f35b7f000000000000000000000000000000000000000000000000000000000000000081565b60005481565b7f000000000000000000000000000000000000000000000000000000000000000081565b6000811161021c576040517f08c379a000000000000000000000000000000000000000000000000000000000815260040161021390610a28565b60405180910390fd5b7f000000000000000000000000000000000000000000000000000000000000000073ffffffffffffffffffffffffffffffffffffffff166323b872dd3330846040518463ffffffff1660e01b815260040161027993929190610a57565b6020604051808303816000875af1158015610298573d6000803e3d6000fd5b505050506040513d601f19601f820116820180604052508101906102bc9190610ac6565b6102fb576040517f08c379a00000000000000000000000000000000000000000000000000000000081526004016102f290610b3f565b60405180910390fd5b600081905061030a33826106dd565b3373ffffffffffffffffffffffffffffffffffffffff167f9ce434f8c25ca029d1f79dd217b13223ff3c5eddc4bed0a34d004f56a854df7f826040516103509190610874565b60405180910390a25050565b60007f0000000000000000000000000000000000000000000000000000000000000000905090565b7f000000000000000000000000000000000000000000000000000000000000000081565b80600160003373ffffffffffffffffffffffffffffffffffffffff1673ffffffffffffffffffffffffffffffffffffffff16815260200190815260200160002054101561042a576040517f08c379a000000000000000000000000000000000000000000000000000000000815260040161042190610bab565b60405180910390fd5b80600054101561046f576040517f08c379a000000000000000000000000000000000000000000000000000000000815260040161046690610c17565b60405180910390fd5b610479338261074f565b7f000000000000000000000000000000000000000000000000000000000000000073ffffffffffffffffffffffffffffffffffffffff1663a9059cbb33836040518363ffffffff1660e01b81526004016104d4929190610c37565b6020604051808303816000875af11580156104f3573d6000803e3d6000fd5b505050506040513d601f19601f820116820180604052508101906105179190610ac6565b5060007f000000000000000000000000000000000000000000000000000000000000000073ffffffffffffffffffffffffffffffffffffffff166370a08231306040518263ffffffff1660e01b81526004016105739190610c60565b602060405180830381865afa158015610590573d6000803e3d6000fd5b505050506040513d601f19601f820116820180604052508101906105b49190610c90565b9050600081600054846105c79190610d1b565b6105d19190610d4c565b90507f000000000000000000000000000000000000000000000000000000000000000073ffffffffffffffffffffffffffffffffffffffff1663a9059cbb33836040518363ffffffff1660e01b815260040161062e929190610c37565b6020604051808303816000875af115801561064d573d6000803e3d6000fd5b505050506040513d601f19601f820116820180604052508101906106719190610ac6565b503373ffffffffffffffffffffffffffffffffffffffff167fcb69be6f06914cd72d42e18a286e6ea41d64fa0e34ba87c4002d28c4c493522a846040516106b89190610874565b60405180910390a2505050565b60016020528060005260406000206000915090505481565b80600160008473ffffffffffffffffffffffffffffffffffffffff1673ffffffffffffffffffffffffffffffffffffffff168152602001908152602001600020600082825461072c9190610da6565b92505081905550806000808282546107449190610da6565b925050819055505050565b80600160008473ffffffffffffffffffffffffffffffffffffffff1673ffffffffffffffffffffffffffffffffffffffff168152602001908152602001600020600082825461079e9190610dfc565b92505081905550806000808282546107b69190610dfc565b925050819055505050565b600073ffffffffffffffffffffffffffffffffffffffff82169050919050565b6000819050919050565b60006108066108016107fc846107c1565b6107e1565b6107c1565b9050919050565b6000610818826107eb565b9050919050565b600061082a8261080d565b9050919050565b61083a8161081f565b82525050565b60006020820190506108556000830184610831565b92915050565b6000819050919050565b61086e8161085b565b82525050565b60006020820190506108896000830184610865565b92915050565b600061089a8261080d565b9050919050565b6108aa8161088f565b82525050565b60006020820190506108c560008301846108a1565b92915050565b600080fd5b6108d98161085b565b81146108e457600080fd5b50565b6000813590506108f6816108d0565b92915050565b600060208284031215610912576109116108cb565b5b6000610920848285016108e7565b91505092915050565b60008160000b9050919050565b61093f81610929565b82525050565b600060208201905061095a6000830184610936565b92915050565b600061096b826107c1565b9050919050565b61097b81610960565b811461098657600080fd5b50565b60008135905061099881610972565b92915050565b6000602082840312156109b4576109b36108cb565b5b60006109c284828501610989565b91505092915050565b600082825260208201905092915050565b7f4e6f204c697175696469747920536861726573204d696e746564000000000000600082015250565b6000610a12601a836109cb565b9150610a1d826109dc565b602082019050919050565b60006020820190508181036000830152610a4181610a05565b9050919050565b610a5181610960565b82525050565b6000606082019050610a6c6000830186610a48565b610a796020830185610a48565b610a866040830184610865565b949350505050565b60008115159050919050565b610aa381610a8e565b8114610aae57600080fd5b50565b600081519050610ac081610a9a565b92915050565b600060208284031215610adc57610adb6108cb565b5b6000610aea84828501610ab1565b91505092915050565b7f546f6b656e205472616e73666572204661696c65640000000000000000000000600082015250565b6000610b296015836109cb565b9150610b3482610af3565b602082019050919050565b60006020820190508181036000830152610b5881610b1c565b9050919050565b7f496e73756666696369656e74206c697175696469747920736861726573000000600082015250565b6000610b95601d836109cb565b9150610ba082610b5f565b602082019050919050565b60006020820190508181036000830152610bc481610b88565b9050919050565b7f496e73756666696369656e7420706f6f6c206c69717569646974790000000000600082015250565b6000610c01601b836109cb565b9150610c0c82610bcb565b602082019050919050565b60006020820190508181036000830152610c3081610bf4565b9050919050565b6000604082019050610c4c6000830185610a48565b610c596020830184610865565b9392505050565b6000602082019050610c756000830184610a48565b92915050565b600081519050610c8a816108d0565b92915050565b600060208284031215610ca657610ca56108cb565b5b6000610cb484828501610c7b565b91505092915050565b7f4e487b7100000000000000000000000000000000000000000000000000000000600052601260045260246000fd5b7f4e487b7100000000000000000000000000000000000000000000000000000000600052601160045260246000fd5b6000610d268261085b565b9150610d318361085b565b925082610d4157610d40610cbd565b5b828204905092915050565b6000610d578261085b565b9150610d628361085b565b9250817fffffffffffffffffffffffffffffffffffffffffffffffffffffffffffffffff0483118215151615610d9b57610d9a610cec565b5b828202905092915050565b6000610db18261085b565b9150610dbc8361085b565b9250827fffffffffffffffffffffffffffffffffffffffffffffffffffffffffffffffff03821115610df157610df0610cec565b5b828201905092915050565b6000610e078261085b565b9150610e128361085b565b925082821015610e2557610e24610cec565b5b82820390509291505056fea2646970667358221220b5ea0ba7198e3e25da091f46bed11e461dd030ba7ff26d81b153adeab4f2622264736f6c634300080e0033",
  "linkReferences": {},
  "deployedLinkReferences": {}
}