{
  "_format": "hh-sol-artifact-1",
  "contractName": "EmploymentLoan",
  "sourceName": "contracts/EmploymentLoan.sol",
  "abi": [
    {
      "inputs": [
        {
          "internalType": "int256",
          "name": "_borrowAmount",
          "type": "int256"
        },
        {
          "internalType": "int256",
          "name": "_paybackDays",
          "type": "int256"
        },
        {
          "internalType": "address",
          "name": "_employer",
          "type": "address"
        },
        {
          "internalType": "address",
          "name": "_borrower",
          "type": "address"
        },
        {
          "internalType": "address",
          "name": "_lendingPool",
          "type": "address"
        },
        {
          "internalType": "contract ISuperToken",
          "name": "_borrowToken",
          "type": "address"
        },
        {
          "internalType": "contract ISuperfluid",
          "name": "_host",
          "type": "address"
        }
      ],
      "stateMutability": "nonpayable",
      "type": "constructor"
    },
    {
      "inputs": [],
      "name": "CFA_ID",
      "outputs": [
        {
          "internalType": "bytes32",
          "name": "",
          "type": "bytes32"
        }
      ],
      "stateMutability": "view",
      "type": "function"
    },
    {
      "inputs": [
        {
          "internalType": "contract ISuperToken",
          "name": "_superToken",
          "type": "address"
        },
        {
          "internalType": "address",
          "name": "_agreementClass",
          "type": "address"
        },
        {
          "internalType": "bytes32",
          "name": "",
          "type": "bytes32"
        },
        {
          "internalType": "bytes",
          "name": "",
          "type": "bytes"
        },
        {
          "internalType": "bytes",
          "name": "",
          "type": "bytes"
        },
        {
          "internalType": "bytes",
          "name": "ctx",
          "type": "bytes"
        }
      ],
      "name": "afterAgreementCreated",
      "outputs": [
        {
          "internalType": "bytes",
          "name": "newCtx",
          "type": "bytes"
        }
      ],
      "stateMutability": "nonpayable",
      "type": "function"
    },
    {
      "inputs": [
        {
          "internalType": "contract ISuperToken",
          "name": "_superToken",
          "type": "address"
        },
        {
          "internalType": "address",
          "name": "_agreementClass",
          "type": "address"
        },
        {
          "internalType": "bytes32",
          "name": "",
          "type": "bytes32"
        },
        {
          "internalType": "bytes",
          "name": "",
          "type": "bytes"
        },
        {
          "internalType": "bytes",
          "name": "",
          "type": "bytes"
        },
        {
          "internalType": "bytes",
          "name": "ctx",
          "type": "bytes"
        }
      ],
      "name": "afterAgreementTerminated",
      "outputs": [
        {
          "internalType": "bytes",
          "name": "newCtx",
          "type": "bytes"
        }
      ],
      "stateMutability": "nonpayable",
      "type": "function"
    },
    {
      "inputs": [
        {
          "internalType": "contract ISuperToken",
          "name": "_superToken",
          "type": "address"
        },
        {
          "internalType": "address",
          "name": "_agreementClass",
          "type": "address"
        },
        {
          "internalType": "bytes32",
          "name": "",
          "type": "bytes32"
        },
        {
          "internalType": "bytes",
          "name": "",
          "type": "bytes"
        },
        {
          "internalType": "bytes",
          "name": "",
          "type": "bytes"
        },
        {
          "internalType": "bytes",
          "name": "ctx",
          "type": "bytes"
        }
      ],
      "name": "afterAgreementUpdated",
      "outputs": [
        {
          "internalType": "bytes",
          "name": "newCtx",
          "type": "bytes"
        }
      ],
      "stateMutability": "nonpayable",
      "type": "function"
    },
    {
      "inputs": [
        {
          "internalType": "contract ISuperToken",
          "name": "",
          "type": "address"
        },
        {
          "internalType": "address",
          "name": "",
          "type": "address"
        },
        {
          "internalType": "bytes32",
          "name": "",
          "type": "bytes32"
        },
        {
          "internalType": "bytes",
          "name": "",
          "type": "bytes"
        },
        {
          "internalType": "bytes",
          "name": "",
          "type": "bytes"
        }
      ],
      "name": "beforeAgreementCreated",
      "outputs": [
        {
          "internalType": "bytes",
          "name": "",
          "type": "bytes"
        }
      ],
      "stateMutability": "view",
      "type": "function"
    },
    {
      "inputs": [
        {
          "internalType": "contract ISuperToken",
          "name": "",
          "type": "address"
        },
        {
          "internalType": "address",
          "name": "",
          "type": "address"
        },
        {
          "internalType": "bytes32",
          "name": "",
          "type": "bytes32"
        },
        {
          "internalType": "bytes",
          "name": "",
          "type": "bytes"
        },
        {
          "internalType": "bytes",
          "name": "",
          "type": "bytes"
        }
      ],
      "name": "beforeAgreementTerminated",
      "outputs": [
        {
          "internalType": "bytes",
          "name": "",
          "type": "bytes"
        }
      ],
      "stateMutability": "view",
      "type": "function"
    },
    {
      "inputs": [
        {
          "internalType": "contract ISuperToken",
          "name": "",
          "type": "address"
        },
        {
          "internalType": "address",
          "name": "",
          "type": "address"
        },
        {
          "internalType": "bytes32",
          "name": "",
          "type": "bytes32"
        },
        {
          "internalType": "bytes",
          "name": "",
          "type": "bytes"
        },
        {
          "internalType": "bytes",
          "name": "",
          "type": "bytes"
        }
      ],
      "name": "beforeAgreementUpdated",
      "outputs": [
        {
          "internalType": "bytes",
          "name": "",
          "type": "bytes"
        }
      ],
      "stateMutability": "view",
      "type": "function"
    },
    {
      "inputs": [],
      "name": "borrow",
      "outputs": [],
      "stateMutability": "nonpayable",
      "type": "function"
    },
    {
      "inputs": [],
      "name": "borrowAmount",
      "outputs": [
        {
          "internalType": "int256",
          "name": "",
          "type": "int256"
        }
      ],
      "stateMutability": "view",
      "type": "function"
    },
    {
      "inputs": [],
      "name": "borrowToken",
      "outputs": [
        {
          "internalType": "contract ISuperToken",
          "name": "",
          "type": "address"
        }
      ],
      "stateMutability": "view",
      "type": "function"
    },
    {
      "inputs": [],
      "name": "borrower",
      "outputs": [
        {
          "internalType": "address",
          "name": "",
          "type": "address"
        }
      ],
      "stateMutability": "view",
      "type": "function"
    },
    {
      "inputs": [],
      "name": "cfaV1",
      "outputs": [
        {
          "internalType": "contract ISuperfluid",
          "name": "host",
          "type": "address"
        },
        {
          "internalType": "contract IConstantFlowAgreementV1",
          "name": "cfa",
          "type": "address"
        }
      ],
      "stateMutability": "view",
      "type": "function"
    },
    {
      "inputs": [],
      "name": "closeCompletedLoan",
      "outputs": [],
      "stateMutability": "nonpayable",
      "type": "function"
    },
    {
      "inputs": [
        {
          "internalType": "uint256",
          "name": "amountForPayoff",
          "type": "uint256"
        }
      ],
      "name": "closeOpenLoan",
      "outputs": [],
      "stateMutability": "nonpayable",
      "type": "function"
    },
    {
      "inputs": [],
      "name": "employer",
      "outputs": [
        {
          "internalType": "address",
          "name": "",
          "type": "address"
        }
      ],
      "stateMutability": "view",
      "type": "function"
    },
    {
      "inputs": [],
      "name": "getPaymentFlowRate",
      "outputs": [
        {
          "internalType": "int96",
          "name": "paymentFlowRate",
          "type": "int96"
        }
      ],
      "stateMutability": "view",
      "type": "function"
    },
    {
      "inputs": [],
      "name": "getTotalAmountRemaining",
      "outputs": [
        {
          "internalType": "uint256",
          "name": "",
          "type": "uint256"
        }
      ],
      "stateMutability": "view",
      "type": "function"
    },
    {
      "inputs": [],
      "name": "host",
      "outputs": [
        {
          "internalType": "contract ISuperfluid",
          "name": "",
          "type": "address"
        }
      ],
      "stateMutability": "view",
      "type": "function"
    },
    {
      "inputs": [],
      "name": "interestRate",
      "outputs": [
        {
          "internalType": "int8",
          "name": "",
          "type": "int8"
        }
      ],
      "stateMutability": "view",
      "type": "function"
    },
    {
      "inputs": [],
      "name": "lendingPool",
      "outputs": [
        {
          "internalType": "address",
          "name": "",
          "type": "address"
        }
      ],
      "stateMutability": "view",
      "type": "function"
    },
    {
      "inputs": [],
      "name": "loanOpen",
      "outputs": [
        {
          "internalType": "bool",
          "name": "",
          "type": "bool"
        }
      ],
      "stateMutability": "view",
      "type": "function"
    },
    {
      "inputs": [],
      "name": "loanStartTime",
      "outputs": [
        {
          "internalType": "uint256",
          "name": "",
          "type": "uint256"
        }
      ],
      "stateMutability": "view",
      "type": "function"
    },
    {
      "inputs": [],
      "name": "paybackDays",
      "outputs": [
        {
          "internalType": "int256",
          "name": "",
          "type": "int256"
        }
      ],
      "stateMutability": "view",
      "type": "function"
    }
  ],
  "bytecode": "0x6101806040523480156200001257600080fd5b506040516200551f3803806200551f833981810160405281019062000038919062000528565b86608081815250508273ffffffffffffffffffffffffffffffffffffffff16635257b5666040518163ffffffff1660e01b8152600401602060405180830381865afa1580156200008c573d6000803e3d6000fd5b505050506040513d601f19601f82011682018060405250810190620000b2919062000619565b60000b60a08160000b815250508560c081815250508473ffffffffffffffffffffffffffffffffffffffff1660e08173ffffffffffffffffffffffffffffffffffffffff16815250508273ffffffffffffffffffffffffffffffffffffffff166101008173ffffffffffffffffffffffffffffffffffffffff16815250508373ffffffffffffffffffffffffffffffffffffffff166101208173ffffffffffffffffffffffffffffffffffffffff16815250508173ffffffffffffffffffffffffffffffffffffffff166101608173ffffffffffffffffffffffffffffffffffffffff16815250508073ffffffffffffffffffffffffffffffffffffffff166101408173ffffffffffffffffffffffffffffffffffffffff16815250506000600260006101000a81548160ff02191690831515021790555060008173ffffffffffffffffffffffffffffffffffffffff1663b6d200de7fa9214cc96615e0085d3bb077758db69497dc2dce3b2b1e97bc93c3d18d83efd36040518263ffffffff1660e01b815260040162000247919062000666565b602060405180830381865afa15801562000265573d6000803e3d6000fd5b505050506040513d601f19601f820116820180604052508101906200028b9190620006c8565b905060405180604001604052808373ffffffffffffffffffffffffffffffffffffffff1681526020018273ffffffffffffffffffffffffffffffffffffffff168152506000808201518160000160006101000a81548173ffffffffffffffffffffffffffffffffffffffff021916908373ffffffffffffffffffffffffffffffffffffffff16021790555060208201518160010160006101000a81548173ffffffffffffffffffffffffffffffffffffffff021916908373ffffffffffffffffffffffffffffffffffffffff1602179055509050506000641000000000640400000000640100000000600117171790508273ffffffffffffffffffffffffffffffffffffffff1663ad3915c8826040518263ffffffff1660e01b8152600401620003b6919062000715565b600060405180830381600087803b158015620003d157600080fd5b505af1158015620003e6573d6000803e3d6000fd5b5050505050505050505050505062000732565b600080fd5b6000819050919050565b6200041381620003fe565b81146200041f57600080fd5b50565b600081519050620004338162000408565b92915050565b600073ffffffffffffffffffffffffffffffffffffffff82169050919050565b6000620004668262000439565b9050919050565b620004788162000459565b81146200048457600080fd5b50565b60008151905062000498816200046d565b92915050565b6000620004ab8262000459565b9050919050565b620004bd816200049e565b8114620004c957600080fd5b50565b600081519050620004dd81620004b2565b92915050565b6000620004f08262000459565b9050919050565b6200050281620004e3565b81146200050e57600080fd5b50565b6000815190506200052281620004f7565b92915050565b600080600080600080600060e0888a0312156200054a5762000549620003f9565b5b60006200055a8a828b0162000422565b97505060206200056d8a828b0162000422565b9650506040620005808a828b0162000487565b9550506060620005938a828b0162000487565b9450506080620005a68a828b0162000487565b93505060a0620005b98a828b01620004cc565b92505060c0620005cc8a828b0162000511565b91505092959891949750929550565b60008160000b9050919050565b620005f381620005db565b8114620005ff57600080fd5b50565b6000815190506200061381620005e8565b92915050565b600060208284031215620006325762000631620003f9565b5b6000620006428482850162000602565b91505092915050565b6000819050919050565b62000660816200064b565b82525050565b60006020820190506200067d600083018462000655565b92915050565b6000620006908262000459565b9050919050565b620006a28162000683565b8114620006ae57600080fd5b50565b600081519050620006c28162000697565b92915050565b600060208284031215620006e157620006e0620003f9565b5b6000620006f184828501620006b1565b91505092915050565b6000819050919050565b6200070f81620006fa565b82525050565b60006020820190506200072c600083018462000704565b92915050565b60805160a05160c05160e05161010051610120516101405161016051614b816200099e600039600081816105fe01528181610a1801528181610b0101528181610c2001528181610c7701528181610d6a01528181610e5001528181610ea7015281816110dc015281816111d3015281816112f6015281816113ba015281816114850152818161152501528181611602015281816116ce015281816117430152818161180e0152818161186e015281816119f501528181611ab901528181611ba201528181611e9d01528181611efa01528181611fc2015281816120bd0152818161212901528181612191015281816121f201528181612288015281816122e30152818161234401528181612548015281816125af015261261001526000818161158701526123d301526000818161086401528181610b2301528181610c5601528181610e86015281816113dc01528181611765015281816117ed01528181611bc401528181611ed901528181611fe40152818161209c01528181612108015281816121d101528181612267015281816123230152818161252701526125ef01526000818161096a01528181610a3a01528181610ba801528181610bff01528181610da701528181610e2f01528181611210015281816114640152818161150401528181611624015281816116ad01528181611adb01528181611e7c01528181612170015281816122c2015261258e01526000818161098e015281816110fd015261247a015260008181610743015281816108e00152610946015260008181610766015261084001526000818161078a015281816107bf015281816109b201526112310152614b816000f3fe608060405234801561001057600080fd5b506004361061014d5760003560e01c8063884d1f40116100c3578063d116eb5b1161007c578063d116eb5b146103aa578063d3112b2e146103c6578063d86ed3e5146103e5578063e68d356914610415578063f437bc591461041f578063fea7b5931461043d5761014d565b8063884d1f40146102e45780639ed53f7a14610314578063a13b9b1f14610332578063a59a997314610350578063ae200e791461036e578063b7dd32aa1461038c5761014d565b806353c11f991161011557806353c11f991461020c5780635e084a411461023c5780635f9e7d771461025a5780637c3a00fd1461028a5780637df1f1b9146102a8578063850c4ca0146102c65761014d565b8063215eed0214610152578063230dbd291461017057806330d9c915146101a05780633cf4d1f8146101d0578063456dc17a146101ee575b600080fd5b61015a610447565b604051610167919061321d565b60405180910390f35b61018a60048036038101906101859190613379565b61046b565b6040516101979190613501565b60405180910390f35b6101ba60048036038101906101b59190613523565b6105ac565b6040516101c79190613501565b60405180910390f35b6101d86105e9565b6040516101e591906135fa565b60405180910390f35b6101f66105fc565b6040516102039190613674565b60405180910390f35b61022660048036038101906102219190613379565b610620565b6040516102339190613501565b60405180910390f35b61024461073a565b60405161025191906136ab565b60405180910390f35b610274600480360381019061026f9190613523565b610801565b6040516102819190613501565b60405180910390f35b61029261083e565b60405161029f91906136e2565b60405180910390f35b6102b0610862565b6040516102bd919061370c565b60405180910390f35b6102ce610886565b6040516102db9190613740565b60405180910390f35b6102fe60048036038101906102f99190613523565b61088c565b60405161030b9190613501565b60405180910390f35b61031c6108c9565b6040516103299190613740565b60405180910390f35b61033a610944565b6040516103479190613774565b60405180910390f35b610358610968565b604051610365919061370c565b60405180910390f35b61037661098c565b604051610383919061370c565b60405180910390f35b6103946109b0565b6040516103a19190613774565b60405180910390f35b6103c460048036038101906103bf91906137bb565b6109d4565b005b6103ce610f05565b6040516103dc92919061382a565b60405180910390f35b6103ff60048036038101906103fa9190613379565b610f57565b60405161040c9190613501565b60405180910390f35b61041d611098565b005b610427611585565b6040516104349190613853565b60405180910390f35b6104456115a9565b005b7fa9214cc96615e0085d3bb077758db69497dc2dce3b2b1e97bc93c3d18d83efd381565b606089896104788261186a565b6104b7576040517f08c379a00000000000000000000000000000000000000000000000000000000081526004016104ae906138cb565b60405180910390fd5b6104c0816118c2565b6104ff576040517f08c379a00000000000000000000000000000000000000000000000000000000081526004016104f69061395d565b60405180910390fd5b6000800160009054906101000a900473ffffffffffffffffffffffffffffffffffffffff1673ffffffffffffffffffffffffffffffffffffffff163373ffffffffffffffffffffffffffffffffffffffff1614610591576040517f08c379a0000000000000000000000000000000000000000000000000000000008152600401610588906139c9565b60405180910390fd5b61059b858561195c565b925050509998505050505050505050565b60606040517f08c379a00000000000000000000000000000000000000000000000000000000081526004016105e090613a5b565b60405180910390fd5b600260009054906101000a900460ff1681565b7f000000000000000000000000000000000000000000000000000000000000000081565b60606000800160009054906101000a900473ffffffffffffffffffffffffffffffffffffffff1673ffffffffffffffffffffffffffffffffffffffff163373ffffffffffffffffffffffffffffffffffffffff16146106b4576040517f08c379a00000000000000000000000000000000000000000000000000000000081526004016106ab906139c9565b60405180910390fd5b6106bd896118c2565b15806106cf57506106cd8a61186a565b155b156107205782828080601f016020809104026020016040519081016040528093929190818152602001838380828437600081840152601f19601f82011690508083019250505050505050905061072d565b61072a838361195c565b90505b9998505050505050505050565b60006301e133807f000000000000000000000000000000000000000000000000000000000000000060647f000000000000000000000000000000000000000000000000000000000000000060000b7f00000000000000000000000000000000000000000000000000000000000000006107b39190613aaa565b6107bd9190613bf0565b7f00000000000000000000000000000000000000000000000000000000000000006107e89190613c5a565b6107f29190613bf0565b6107fc9190613bf0565b905090565b60606040517f08c379a000000000000000000000000000000000000000000000000000000000815260040161083590613d60565b60405180910390fd5b7f000000000000000000000000000000000000000000000000000000000000000081565b7f000000000000000000000000000000000000000000000000000000000000000081565b60035481565b60606040517f08c379a00000000000000000000000000000000000000000000000000000000081526004016108c090613df2565b60405180910390fd5b600080600354426108da9190613e12565b622819a07f00000000000000000000000000000000000000000000000000000000000000006109099190613aaa565b6109139190613e46565b905060008113610927576000915050610941565b61092f61073a565b600b0b8161093d9190613eda565b9150505b90565b7f000000000000000000000000000000000000000000000000000000000000000081565b7f000000000000000000000000000000000000000000000000000000000000000081565b7f000000000000000000000000000000000000000000000000000000000000000081565b7f000000000000000000000000000000000000000000000000000000000000000081565b60008060010160009054906101000a900473ffffffffffffffffffffffffffffffffffffffff1673ffffffffffffffffffffffffffffffffffffffff1663e6a1e8887f0000000000000000000000000000000000000000000000000000000000000000307f00000000000000000000000000000000000000000000000000000000000000006040518463ffffffff1660e01b8152600401610a7793929190613f34565b608060405180830381865afa158015610a94573d6000803e3d6000fd5b505050506040513d601f19601f82011682018060405250810190610ab89190613fac565b505091505060008060010160009054906101000a900473ffffffffffffffffffffffffffffffffffffffff1673ffffffffffffffffffffffffffffffffffffffff1663e6a1e8887f0000000000000000000000000000000000000000000000000000000000000000307f00000000000000000000000000000000000000000000000000000000000000006040518463ffffffff1660e01b8152600401610b6093929190613f34565b608060405180830381865afa158015610b7d573d6000803e3d6000fd5b505050506040513d601f19601f82011682018060405250810190610ba19190613fac565b50509150507f000000000000000000000000000000000000000000000000000000000000000073ffffffffffffffffffffffffffffffffffffffff163373ffffffffffffffffffffffffffffffffffffffff1603610cd457610c51307f00000000000000000000000000000000000000000000000000000000000000007f00000000000000000000000000000000000000000000000000000000000000006000611d00909392919063ffffffff16565b610cb47f00000000000000000000000000000000000000000000000000000000000000007f00000000000000000000000000000000000000000000000000000000000000008484610ca29190614013565b6000611d60909392919063ffffffff16565b6000600260006101000a81548160ff021916908315150217905550610f00565b610cdc6108c9565b831015610d1e576040517f08c379a0000000000000000000000000000000000000000000000000000000008152600401610d15906140df565b60405180910390fd5b6000610d286108c9565b11610d68576040517f08c379a0000000000000000000000000000000000000000000000000000000008152600401610d5f90614171565b60405180910390fd5b7f000000000000000000000000000000000000000000000000000000000000000073ffffffffffffffffffffffffffffffffffffffff166323b872dd337f0000000000000000000000000000000000000000000000000000000000000000866040518463ffffffff1660e01b8152600401610de593929190614191565b6020604051808303816000875af1158015610e04573d6000803e3d6000fd5b505050506040513d601f19601f82011682018060405250810190610e2891906141f4565b50610e81307f00000000000000000000000000000000000000000000000000000000000000007f00000000000000000000000000000000000000000000000000000000000000006000611d00909392919063ffffffff16565b610ee47f00000000000000000000000000000000000000000000000000000000000000007f00000000000000000000000000000000000000000000000000000000000000008484610ed29190614013565b6000611d60909392919063ffffffff16565b6000600260006101000a81548160ff0219169083151502179055505b505050565b60008060000160009054906101000a900473ffffffffffffffffffffffffffffffffffffffff16908060010160009054906101000a900473ffffffffffffffffffffffffffffffffffffffff16905082565b60608989610f648261186a565b610fa3576040517f08c379a0000000000000000000000000000000000000000000000000000000008152600401610f9a906138cb565b60405180910390fd5b610fac816118c2565b610feb576040517f08c379a0000000000000000000000000000000000000000000000000000000008152600401610fe29061395d565b60405180910390fd5b6000800160009054906101000a900473ffffffffffffffffffffffffffffffffffffffff1673ffffffffffffffffffffffffffffffffffffffff163373ffffffffffffffffffffffffffffffffffffffff161461107d576040517f08c379a0000000000000000000000000000000000000000000000000000000008152600401611074906139c9565b60405180910390fd5b611087858561195c565b925050509998505050505050505050565b60008060010160009054906101000a900473ffffffffffffffffffffffffffffffffffffffff1673ffffffffffffffffffffffffffffffffffffffff1663e6a1e8887f00000000000000000000000000000000000000000000000000000000000000007f0000000000000000000000000000000000000000000000000000000000000000306040518463ffffffff1660e01b815260040161113b93929190613f34565b608060405180830381865afa158015611158573d6000803e3d6000fd5b505050506040513d601f19601f8201168201806040525081019061117c9190613fac565b505091505061118961073a565b600b0b81600b0b12156111d1576040517f08c379a00000000000000000000000000000000000000000000000000000000081526004016111c89061426d565b60405180910390fd5b7f000000000000000000000000000000000000000000000000000000000000000073ffffffffffffffffffffffffffffffffffffffff166323b872dd337f00000000000000000000000000000000000000000000000000000000000000007f00000000000000000000000000000000000000000000000000000000000000006040518463ffffffff1660e01b815260040161126e93929190614191565b6020604051808303816000875af115801561128d573d6000803e3d6000fd5b505050506040513d601f19601f820116820180604052508101906112b191906141f4565b5060008060010160009054906101000a900473ffffffffffffffffffffffffffffffffffffffff1673ffffffffffffffffffffffffffffffffffffffff1663e8e7e2d17f0000000000000000000000000000000000000000000000000000000000000000306040518363ffffffff1660e01b815260040161133392919061428d565b602060405180830381865afa158015611350573d6000803e3d6000fd5b505050506040513d601f19601f8201168201806040525081019061137491906142b6565b905060008060010160009054906101000a900473ffffffffffffffffffffffffffffffffffffffff1673ffffffffffffffffffffffffffffffffffffffff1663e6a1e8887f0000000000000000000000000000000000000000000000000000000000000000307f00000000000000000000000000000000000000000000000000000000000000006040518463ffffffff1660e01b815260040161141993929190613f34565b608060405180830381865afa158015611436573d6000803e3d6000fd5b505050506040513d601f19601f8201168201806040525081019061145a9190613fac565b50509150506114ff7f00000000000000000000000000000000000000000000000000000000000000007f00000000000000000000000000000000000000000000000000000000000000006114ac61073a565b7fffffffffffffffffffffffffffffffffffffffffffffffffffffffffffffffff85876114d991906142e3565b6114e39190614363565b6114ed91906142e3565b6000611d60909392919063ffffffff16565b61155e7f00000000000000000000000000000000000000000000000000000000000000007f000000000000000000000000000000000000000000000000000000000000000061154c61073a565b6000611dc0909392919063ffffffff16565b6001600260006101000a81548160ff02191690831515021790555042600381905550505050565b7f000000000000000000000000000000000000000000000000000000000000000081565b60006115b36108c9565b11156115be57600080fd5b60008060010160009054906101000a900473ffffffffffffffffffffffffffffffffffffffff1673ffffffffffffffffffffffffffffffffffffffff1663e6a1e8887f0000000000000000000000000000000000000000000000000000000000000000307f00000000000000000000000000000000000000000000000000000000000000006040518463ffffffff1660e01b815260040161166193929190613f34565b608060405180830381865afa15801561167e573d6000803e3d6000fd5b505050506040513d601f19601f820116820180604052508101906116a29190613fac565b50509150506116ff307f00000000000000000000000000000000000000000000000000000000000000007f00000000000000000000000000000000000000000000000000000000000000006000611d00909392919063ffffffff16565b60008060010160009054906101000a900473ffffffffffffffffffffffffffffffffffffffff1673ffffffffffffffffffffffffffffffffffffffff1663e6a1e8887f0000000000000000000000000000000000000000000000000000000000000000307f00000000000000000000000000000000000000000000000000000000000000006040518463ffffffff1660e01b81526004016117a293929190613f34565b608060405180830381865afa1580156117bf573d6000803e3d6000fd5b505050506040513d601f19601f820116820180604052508101906117e39190613fac565b505091505061184b7f00000000000000000000000000000000000000000000000000000000000000007f000000000000000000000000000000000000000000000000000000000000000084846118399190614013565b6000611d60909392919063ffffffff16565b6000600260006101000a81548160ff0219169083151502179055505050565b60007f000000000000000000000000000000000000000000000000000000000000000073ffffffffffffffffffffffffffffffffffffffff168273ffffffffffffffffffffffffffffffffffffffff16149050919050565b60007fa9214cc96615e0085d3bb077758db69497dc2dce3b2b1e97bc93c3d18d83efd38273ffffffffffffffffffffffffffffffffffffffff16637730599e6040518163ffffffff1660e01b8152600401602060405180830381865afa158015611930573d6000803e3d6000fd5b505050506040513d601f19601f820116820180604052508101906119549190614467565b149050919050565b606082828080601f016020809104026020016040519081016040528093929190818152602001838380828437600081840152601f19601f82011690508083019250505050505050905060006119af61073a565b905060008060010160009054906101000a900473ffffffffffffffffffffffffffffffffffffffff1673ffffffffffffffffffffffffffffffffffffffff1663e8e7e2d17f0000000000000000000000000000000000000000000000000000000000000000306040518363ffffffff1660e01b8152600401611a3292919061428d565b602060405180830381865afa158015611a4f573d6000803e3d6000fd5b505050506040513d601f19601f82011682018060405250810190611a7391906142b6565b905060008060010160009054906101000a900473ffffffffffffffffffffffffffffffffffffffff1673ffffffffffffffffffffffffffffffffffffffff1663e6a1e8887f0000000000000000000000000000000000000000000000000000000000000000307f00000000000000000000000000000000000000000000000000000000000000006040518463ffffffff1660e01b8152600401611b1893929190613f34565b608060405180830381865afa158015611b35573d6000803e3d6000fd5b505050506040513d601f19601f82011682018060405250810190611b599190613fac565b505091505060008060010160009054906101000a900473ffffffffffffffffffffffffffffffffffffffff1673ffffffffffffffffffffffffffffffffffffffff1663e6a1e8887f0000000000000000000000000000000000000000000000000000000000000000307f00000000000000000000000000000000000000000000000000000000000000006040518463ffffffff1660e01b8152600401611c0193929190613f34565b608060405180830381865afa158015611c1e573d6000803e3d6000fd5b505050506040513d601f19601f82011682018060405250810190611c429190613fac565b505091505060008183611c559190614013565b905060008185611c659190614013565b9050600081600b0b1215611ca2577fffffffffffffffffffffffffffffffffffffffffffffffffffffffffffffffff81611c9f9190614363565b90505b6000600b0b81600b0b03611cc257611cbb898986611e20565b9650611cf4565b6000600b0b82600b0b14611ce457611cdd8989888785611f35565b9650611cf3565b611cf089898884612386565b96505b5b50505050505092915050565b611d5a84848484600067ffffffffffffffff811115611d2257611d21614494565b5b6040519080825280601f01601f191660200182016040528015611d545781602001600182028036833780820191505090505b5061264f565b50505050565b611dba84848484600067ffffffffffffffff811115611d8257611d81614494565b5b6040519080825280601f01601f191660200182016040528015611db45781602001600182028036833780820191505090505b50612809565b50505050565b611e1a84848484600067ffffffffffffffff811115611de257611de1614494565b5b6040519080825280601f01601f191660200182016040528015611e145781602001600182028036833780820191505090505b506129c3565b50505050565b606083838080601f016020809104026020016040519081016040528093929190818152602001838380828437600081840152601f19601f820116905080830192505050505050509050600082600b0b1315611ed257611ecf81307f00000000000000000000000000000000000000000000000000000000000000007f00000000000000000000000000000000000000000000000000000000000000006000612b7d90949392919063ffffffff16565b90505b611f2c81307f00000000000000000000000000000000000000000000000000000000000000007f00000000000000000000000000000000000000000000000000000000000000006000612b7d90949392919063ffffffff16565b90509392505050565b606085858080601f016020809104026020016040519081016040528093929190818152602001838380828437600081840152601f19601f82011690508083019250505050505050905060008060010160009054906101000a900473ffffffffffffffffffffffffffffffffffffffff1673ffffffffffffffffffffffffffffffffffffffff1663e6a1e8887f0000000000000000000000000000000000000000000000000000000000000000307f00000000000000000000000000000000000000000000000000000000000000006040518463ffffffff1660e01b815260040161202193929190613f34565b608060405180830381865afa15801561203e573d6000803e3d6000fd5b505050506040513d601f19601f820116820180604052508101906120629190613fac565b50509150506000858461207591906142e3565b600b0b131561222d57600084600b0b13156121cb57600081600b0b1315612102576120fb827f00000000000000000000000000000000000000000000000000000000000000007f000000000000000000000000000000000000000000000000000000000000000088876120e891906142e3565b6000612be590949392919063ffffffff16565b915061216a565b612167827f00000000000000000000000000000000000000000000000000000000000000007f0000000000000000000000000000000000000000000000000000000000000000888761215491906142e3565b6000612c4d90949392919063ffffffff16565b91505b6121c4827f00000000000000000000000000000000000000000000000000000000000000007f0000000000000000000000000000000000000000000000000000000000000000886000612be590949392919063ffffffff16565b9150612228565b612225827f00000000000000000000000000000000000000000000000000000000000000007f0000000000000000000000000000000000000000000000000000000000000000866000612be590949392919063ffffffff16565b91505b61237c565b6000858461223b91906142e3565b600b0b1315801561224f5750600083600b0b135b1561237b57600084600b0b131561231d576122ba82307f00000000000000000000000000000000000000000000000000000000000000007f00000000000000000000000000000000000000000000000000000000000000006000612b7d90949392919063ffffffff16565b9150612316827f00000000000000000000000000000000000000000000000000000000000000007f0000000000000000000000000000000000000000000000000000000000000000866000612be590949392919063ffffffff16565b915061237a565b612377827f00000000000000000000000000000000000000000000000000000000000000007f0000000000000000000000000000000000000000000000000000000000000000866000612be590949392919063ffffffff16565b91505b5b5b5095945050505050565b606084848080601f016020809104026020016040519081016040528093929190818152602001838380828437600081840152601f19601f82011690508083019250505050505050905060007f000000000000000000000000000000000000000000000000000000000000000073ffffffffffffffffffffffffffffffffffffffff16633f6c923a87876040518363ffffffff1660e01b815260040161242c9291906144ff565b600060405180830381865afa158015612449573d6000803e3d6000fd5b505050506040513d6000823e3d601f19601f820116820180604052508101906124729190614857565b6060015190507f000000000000000000000000000000000000000000000000000000000000000073ffffffffffffffffffffffffffffffffffffffff168173ffffffffffffffffffffffffffffffffffffffff1614612506576040517f08c379a00000000000000000000000000000000000000000000000000000000081526004016124fd90614912565b60405180910390fd5b60011515600260009054906101000a900460ff161515036125e957612586827f00000000000000000000000000000000000000000000000000000000000000007f0000000000000000000000000000000000000000000000000000000000000000878761257391906142e3565b6000612c4d90949392919063ffffffff16565b91506125e2827f00000000000000000000000000000000000000000000000000000000000000007f0000000000000000000000000000000000000000000000000000000000000000876000612c4d90949392919063ffffffff16565b9150612646565b612643827f00000000000000000000000000000000000000000000000000000000000000007f0000000000000000000000000000000000000000000000000000000000000000866000612c4d90949392919063ffffffff16565b91505b50949350505050565b8460000160009054906101000a900473ffffffffffffffffffffffffffffffffffffffff1673ffffffffffffffffffffffffffffffffffffffff166339255d5b8660010160009054906101000a900473ffffffffffffffffffffffffffffffffffffffff168760010160009054906101000a900473ffffffffffffffffffffffffffffffffffffffff1673ffffffffffffffffffffffffffffffffffffffff1663b4b333c6868989600067ffffffffffffffff81111561271257612711614494565b5b6040519080825280601f01601f1916602001820160405280156127445781602001600182028036833780820191505090505b506040516024016127589493929190614953565b604051602081830303815290604052915060e01b6020820180517bffffffffffffffffffffffffffffffffffffffffffffffffffffffff8381831617835250505050846040518463ffffffff1660e01b81526004016127b99392919061499f565b6000604051808303816000875af11580156127d8573d6000803e3d6000fd5b505050506040513d6000823e3d601f19601f8201168201806040525081019061280191906149e4565b505050505050565b8460000160009054906101000a900473ffffffffffffffffffffffffffffffffffffffff1673ffffffffffffffffffffffffffffffffffffffff166339255d5b8660010160009054906101000a900473ffffffffffffffffffffffffffffffffffffffff168760010160009054906101000a900473ffffffffffffffffffffffffffffffffffffffff1673ffffffffffffffffffffffffffffffffffffffff166350209a62878988600067ffffffffffffffff8111156128cc576128cb614494565b5b6040519080825280601f01601f1916602001820160405280156128fe5781602001600182028036833780820191505090505b506040516024016129129493929190614a2d565b604051602081830303815290604052915060e01b6020820180517bffffffffffffffffffffffffffffffffffffffffffffffffffffffff8381831617835250505050846040518463ffffffff1660e01b81526004016129739392919061499f565b6000604051808303816000875af1158015612992573d6000803e3d6000fd5b505050506040513d6000823e3d601f19601f820116820180604052508101906129bb91906149e4565b505050505050565b8460000160009054906101000a900473ffffffffffffffffffffffffffffffffffffffff1673ffffffffffffffffffffffffffffffffffffffff166339255d5b8660010160009054906101000a900473ffffffffffffffffffffffffffffffffffffffff168760010160009054906101000a900473ffffffffffffffffffffffffffffffffffffffff1673ffffffffffffffffffffffffffffffffffffffff166362fc305e878988600067ffffffffffffffff811115612a8657612a85614494565b5b6040519080825280601f01601f191660200182016040528015612ab85781602001600182028036833780820191505090505b50604051602401612acc9493929190614a2d565b604051602081830303815290604052915060e01b6020820180517bffffffffffffffffffffffffffffffffffffffffffffffffffffffff8381831617835250505050846040518463ffffffff1660e01b8152600401612b2d9392919061499f565b6000604051808303816000875af1158015612b4c573d6000803e3d6000fd5b505050506040513d6000823e3d601f19601f82011682018060405250810190612b7591906149e4565b505050505050565b6060612bda8686868686600067ffffffffffffffff811115612ba257612ba1614494565b5b6040519080825280601f01601f191660200182016040528015612bd45781602001600182028036833780820191505090505b50612cb5565b905095945050505050565b6060612c428686868686600067ffffffffffffffff811115612c0a57612c09614494565b5b6040519080825280601f01601f191660200182016040528015612c3c5781602001600182028036833780820191505090505b50612e7a565b905095945050505050565b6060612caa8686868686600067ffffffffffffffff811115612c7257612c71614494565b5b6040519080825280601f01601f191660200182016040528015612ca45781602001600182028036833780820191505090505b5061303f565b905095945050505050565b60608660000160009054906101000a900473ffffffffffffffffffffffffffffffffffffffff1673ffffffffffffffffffffffffffffffffffffffff16634329d2938860010160009054906101000a900473ffffffffffffffffffffffffffffffffffffffff168960010160009054906101000a900473ffffffffffffffffffffffffffffffffffffffff1673ffffffffffffffffffffffffffffffffffffffff1663b4b333c6878a8a600067ffffffffffffffff811115612d7a57612d79614494565b5b6040519080825280601f01601f191660200182016040528015612dac5781602001600182028036833780820191505090505b50604051602401612dc09493929190614953565b604051602081830303815290604052915060e01b6020820180517bffffffffffffffffffffffffffffffffffffffffffffffffffffffff8381831617835250505050858a6040518563ffffffff1660e01b8152600401612e239493929190614a79565b6000604051808303816000875af1158015612e42573d6000803e3d6000fd5b505050506040513d6000823e3d601f19601f82011682018060405250810190612e6b9190614ad3565b50809150509695505050505050565b60608660000160009054906101000a900473ffffffffffffffffffffffffffffffffffffffff1673ffffffffffffffffffffffffffffffffffffffff16634329d2938860010160009054906101000a900473ffffffffffffffffffffffffffffffffffffffff168960010160009054906101000a900473ffffffffffffffffffffffffffffffffffffffff1673ffffffffffffffffffffffffffffffffffffffff166350209a62888a89600067ffffffffffffffff811115612f3f57612f3e614494565b5b6040519080825280601f01601f191660200182016040528015612f715781602001600182028036833780820191505090505b50604051602401612f859493929190614a2d565b604051602081830303815290604052915060e01b6020820180517bffffffffffffffffffffffffffffffffffffffffffffffffffffffff8381831617835250505050858a6040518563ffffffff1660e01b8152600401612fe89493929190614a79565b6000604051808303816000875af1158015613007573d6000803e3d6000fd5b505050506040513d6000823e3d601f19601f820116820180604052508101906130309190614ad3565b50809150509695505050505050565b60608660000160009054906101000a900473ffffffffffffffffffffffffffffffffffffffff1673ffffffffffffffffffffffffffffffffffffffff16634329d2938860010160009054906101000a900473ffffffffffffffffffffffffffffffffffffffff168960010160009054906101000a900473ffffffffffffffffffffffffffffffffffffffff1673ffffffffffffffffffffffffffffffffffffffff166362fc305e888a89600067ffffffffffffffff81111561310457613103614494565b5b6040519080825280601f01601f1916602001820160405280156131365781602001600182028036833780820191505090505b5060405160240161314a9493929190614a2d565b604051602081830303815290604052915060e01b6020820180517bffffffffffffffffffffffffffffffffffffffffffffffffffffffff8381831617835250505050858a6040518563ffffffff1660e01b81526004016131ad9493929190614a79565b6000604051808303816000875af11580156131cc573d6000803e3d6000fd5b505050506040513d6000823e3d601f19601f820116820180604052508101906131f59190614ad3565b50809150509695505050505050565b6000819050919050565b61321781613204565b82525050565b6000602082019050613232600083018461320e565b92915050565b6000604051905090565b600080fd5b600080fd5b600073ffffffffffffffffffffffffffffffffffffffff82169050919050565b60006132778261324c565b9050919050565b60006132898261326c565b9050919050565b6132998161327e565b81146132a457600080fd5b50565b6000813590506132b681613290565b92915050565b6132c58161326c565b81146132d057600080fd5b50565b6000813590506132e2816132bc565b92915050565b6132f181613204565b81146132fc57600080fd5b50565b60008135905061330e816132e8565b92915050565b600080fd5b600080fd5b600080fd5b60008083601f84011261333957613338613314565b5b8235905067ffffffffffffffff81111561335657613355613319565b5b6020830191508360018202830111156133725761337161331e565b5b9250929050565b600080600080600080600080600060c08a8c03121561339b5761339a613242565b5b60006133a98c828d016132a7565b99505060206133ba8c828d016132d3565b98505060406133cb8c828d016132ff565b97505060608a013567ffffffffffffffff8111156133ec576133eb613247565b5b6133f88c828d01613323565b965096505060808a013567ffffffffffffffff81111561341b5761341a613247565b5b6134278c828d01613323565b945094505060a08a013567ffffffffffffffff81111561344a57613449613247565b5b6134568c828d01613323565b92509250509295985092959850929598565b600081519050919050565b600082825260208201905092915050565b60005b838110156134a2578082015181840152602081019050613487565b838111156134b1576000848401525b50505050565b6000601f19601f8301169050919050565b60006134d382613468565b6134dd8185613473565b93506134ed818560208601613484565b6134f6816134b7565b840191505092915050565b6000602082019050818103600083015261351b81846134c8565b905092915050565b600080600080600080600060a0888a03121561354257613541613242565b5b60006135508a828b016132a7565b97505060206135618a828b016132d3565b96505060406135728a828b016132ff565b955050606088013567ffffffffffffffff81111561359357613592613247565b5b61359f8a828b01613323565b9450945050608088013567ffffffffffffffff8111156135c2576135c1613247565b5b6135ce8a828b01613323565b925092505092959891949750929550565b60008115159050919050565b6135f4816135df565b82525050565b600060208201905061360f60008301846135eb565b92915050565b6000819050919050565b600061363a6136356136308461324c565b613615565b61324c565b9050919050565b600061364c8261361f565b9050919050565b600061365e82613641565b9050919050565b61366e81613653565b82525050565b60006020820190506136896000830184613665565b92915050565b600081600b0b9050919050565b6136a58161368f565b82525050565b60006020820190506136c0600083018461369c565b92915050565b60008160000b9050919050565b6136dc816136c6565b82525050565b60006020820190506136f760008301846136d3565b92915050565b6137068161326c565b82525050565b600060208201905061372160008301846136fd565b92915050565b6000819050919050565b61373a81613727565b82525050565b60006020820190506137556000830184613731565b92915050565b6000819050919050565b61376e8161375b565b82525050565b60006020820190506137896000830184613765565b92915050565b61379881613727565b81146137a357600080fd5b50565b6000813590506137b58161378f565b92915050565b6000602082840312156137d1576137d0613242565b5b60006137df848285016137a6565b91505092915050565b60006137f382613641565b9050919050565b613803816137e8565b82525050565b600061381482613641565b9050919050565b61382481613809565b82525050565b600060408201905061383f60008301856137fa565b61384c602083018461381b565b9392505050565b600060208201905061386860008301846137fa565b92915050565b600082825260208201905092915050565b7f5265646972656374416c6c3a206e6f7420616363657074656420746f6b656e00600082015250565b60006138b5601f8361386e565b91506138c08261387f565b602082019050919050565b600060208201905081810360008301526138e4816138a8565b9050919050565b7f5265646972656374416c6c3a206f6e6c7920434641763120737570706f72746560008201527f6400000000000000000000000000000000000000000000000000000000000000602082015250565b600061394760218361386e565b9150613952826138eb565b604082019050919050565b600060208201905081810360008301526139768161393a565b9050919050565b7f4f6e6c7920686f73742063616e2063616c6c2063616c6c6261636b0000000000600082015250565b60006139b3601b8361386e565b91506139be8261397d565b602082019050919050565b600060208201905081810360008301526139e2816139a6565b9050919050565b7f556e737570706f727465642063616c6c6261636b202d204265666f726520416760008201527f7265656d656e7420437265617465640000000000000000000000000000000000602082015250565b6000613a45602f8361386e565b9150613a50826139e9565b604082019050919050565b60006020820190508181036000830152613a7481613a38565b9050919050565b7f4e487b7100000000000000000000000000000000000000000000000000000000600052601160045260246000fd5b6000613ab58261375b565b9150613ac08361375b565b9250827f7fffffffffffffffffffffffffffffffffffffffffffffffffffffffffffffff0482116000841360008413161615613aff57613afe613a7b565b5b817f80000000000000000000000000000000000000000000000000000000000000000583126000841260008413161615613b3c57613b3b613a7b565b5b827f80000000000000000000000000000000000000000000000000000000000000000582126000841360008412161615613b7957613b78613a7b565b5b827f7fffffffffffffffffffffffffffffffffffffffffffffffffffffffffffffff0582126000841260008412161615613bb657613bb5613a7b565b5b828202905092915050565b7f4e487b7100000000000000000000000000000000000000000000000000000000600052601260045260246000fd5b6000613bfb8261375b565b9150613c068361375b565b925082613c1657613c15613bc1565b5b600160000383147f800000000000000000000000000000000000000000000000000000000000000083141615613c4f57613c4e613a7b565b5b828205905092915050565b6000613c658261375b565b9150613c708361375b565b9250817f7fffffffffffffffffffffffffffffffffffffffffffffffffffffffffffffff03831360008312151615613cab57613caa613a7b565b5b817f8000000000000000000000000000000000000000000000000000000000000000038312600083121615613ce357613ce2613a7b565b5b828201905092915050565b7f556e737570706f727465642063616c6c6261636b202d20204265666f7265204160008201527f677265656d656e74205465726d696e6174656400000000000000000000000000602082015250565b6000613d4a60338361386e565b9150613d5582613cee565b604082019050919050565b60006020820190508181036000830152613d7981613d3d565b9050919050565b7f556e737570706f727465642063616c6c6261636b202d204265666f726520416760008201527f7265656d656e7420757064617465640000000000000000000000000000000000602082015250565b6000613ddc602f8361386e565b9150613de782613d80565b604082019050919050565b60006020820190508181036000830152613e0b81613dcf565b9050919050565b6000613e1d82613727565b9150613e2883613727565b925082821015613e3b57613e3a613a7b565b5b828203905092915050565b6000613e518261375b565b9150613e5c8361375b565b9250827f800000000000000000000000000000000000000000000000000000000000000001821260008412151615613e9757613e96613a7b565b5b827f7fffffffffffffffffffffffffffffffffffffffffffffffffffffffffffffff018213600084121615613ecf57613ece613a7b565b5b828203905092915050565b6000613ee582613727565b9150613ef083613727565b9250817fffffffffffffffffffffffffffffffffffffffffffffffffffffffffffffffff0483118215151615613f2957613f28613a7b565b5b828202905092915050565b6000606082019050613f496000830186613665565b613f5660208301856136fd565b613f6360408301846136fd565b949350505050565b600081519050613f7a8161378f565b92915050565b613f898161368f565b8114613f9457600080fd5b50565b600081519050613fa681613f80565b92915050565b60008060008060808587031215613fc657613fc5613242565b5b6000613fd487828801613f6b565b9450506020613fe587828801613f97565b9350506040613ff687828801613f6b565b925050606061400787828801613f6b565b91505092959194509250565b600061401e8261368f565b91506140298361368f565b9250816b7fffffffffffffffffffffff038313600083121516156140505761404f613a7b565b5b817fffffffffffffffffffffffffffffffffffffffff80000000000000000000000003831260008312161561408857614087613a7b565b5b828201905092915050565b7f696e7375662066756e6473000000000000000000000000000000000000000000600082015250565b60006140c9600b8361386e565b91506140d482614093565b602082019050919050565b600060208201905081810360008301526140f8816140bc565b9050919050565b7f796f752073686f756c642063616c6c20636c6f73654f70656e4c6f616e28292060008201527f696e737465616400000000000000000000000000000000000000000000000000602082015250565b600061415b60278361386e565b9150614166826140ff565b604082019050919050565b6000602082019050818103600083015261418a8161414e565b9050919050565b60006060820190506141a660008301866136fd565b6141b360208301856136fd565b6141c06040830184613731565b949350505050565b6141d1816135df565b81146141dc57600080fd5b50565b6000815190506141ee816141c8565b92915050565b60006020828403121561420a57614209613242565b5b6000614218848285016141df565b91505092915050565b7f696e73756666696369656e7420666c6f77526174650000000000000000000000600082015250565b600061425760158361386e565b915061426282614221565b602082019050919050565b600060208201905081810360008301526142868161424a565b9050919050565b60006040820190506142a26000830185613665565b6142af60208301846136fd565b9392505050565b6000602082840312156142cc576142cb613242565b5b60006142da84828501613f97565b91505092915050565b60006142ee8261368f565b91506142f98361368f565b9250827fffffffffffffffffffffffffffffffffffffffff8000000000000000000000000182126000841215161561433457614333613a7b565b5b826b7fffffffffffffffffffffff01821360008412161561435857614357613a7b565b5b828203905092915050565b600061436e8261368f565b91506143798361368f565b9250826b7fffffffffffffffffffffff04821160008413600084131616156143a4576143a3613a7b565b5b817fffffffffffffffffffffffffffffffffffffffff80000000000000000000000005831260008412600084131616156143e1576143e0613a7b565b5b827fffffffffffffffffffffffffffffffffffffffff800000000000000000000000058212600084136000841216161561441e5761441d613a7b565b5b826b7fffffffffffffffffffffff058212600084126000841216161561444757614446613a7b565b5b828202905092915050565b600081519050614461816132e8565b92915050565b60006020828403121561447d5761447c613242565b5b600061448b84828501614452565b91505092915050565b7f4e487b7100000000000000000000000000000000000000000000000000000000600052604160045260246000fd5b82818337600083830152505050565b60006144de8385613473565b93506144eb8385846144c3565b6144f4836134b7565b840190509392505050565b6000602082019050818103600083015261451a8184866144d2565b90509392505050565b600080fd5b614531826134b7565b810181811067ffffffffffffffff821117156145505761454f614494565b5b80604052505050565b6000614563613238565b905061456f8282614528565b919050565b600080fd5b600060ff82169050919050565b61458f81614579565b811461459a57600080fd5b50565b6000815190506145ac81614586565b92915050565b6000815190506145c1816132bc565b92915050565b60007fffffffff0000000000000000000000000000000000000000000000000000000082169050919050565b6145fc816145c7565b811461460757600080fd5b50565b600081519050614619816145f3565b92915050565b600080fd5b600067ffffffffffffffff82111561463f5761463e614494565b5b614648826134b7565b9050602081019050919050565b600061466861466384614624565b614559565b9050828152602081018484840111156146845761468361461f565b5b61468f848285613484565b509392505050565b600082601f8301126146ac576146ab613314565b5b81516146bc848260208601614655565b91505092915050565b6146ce8161375b565b81146146d957600080fd5b50565b6000815190506146eb816146c5565b92915050565b60006146fc8261326c565b9050919050565b61470c816146f1565b811461471757600080fd5b50565b60008151905061472981614703565b92915050565b6000610160828403121561474657614745614523565b5b614751610160614559565b905060006147618482850161459d565b60008301525060206147758482850161459d565b602083015250604061478984828501613f6b565b604083015250606061479d848285016145b2565b60608301525060806147b18482850161460a565b60808301525060a082015167ffffffffffffffff8111156147d5576147d4614574565b5b6147e184828501614697565b60a08301525060c06147f584828501613f6b565b60c08301525060e061480984828501613f6b565b60e08301525061010061481e848285016146dc565b61010083015250610120614834848285016145b2565b6101208301525061014061484a8482850161471a565b6101408301525092915050565b60006020828403121561486d5761486c613242565b5b600082015167ffffffffffffffff81111561488b5761488a613247565b5b6148978482850161472f565b91505092915050565b7f73656e646572206f6620666c6f77206d7573742062652074686520626f72726f60008201527f7765720000000000000000000000000000000000000000000000000000000000602082015250565b60006148fc60238361386e565b9150614907826148a0565b604082019050919050565b6000602082019050818103600083015261492b816148ef565b9050919050565b600061493d82613641565b9050919050565b61494d81614932565b82525050565b60006080820190506149686000830187614944565b61497560208301866136fd565b61498260408301856136fd565b818103606083015261499481846134c8565b905095945050505050565b60006060820190506149b4600083018661381b565b81810360208301526149c681856134c8565b905081810360408301526149da81846134c8565b9050949350505050565b6000602082840312156149fa576149f9613242565b5b600082015167ffffffffffffffff811115614a1857614a17613247565b5b614a2484828501614697565b91505092915050565b6000608082019050614a426000830187614944565b614a4f60208301866136fd565b614a5c604083018561369c565b8181036060830152614a6e81846134c8565b905095945050505050565b6000608082019050614a8e600083018761381b565b8181036020830152614aa081866134c8565b90508181036040830152614ab481856134c8565b90508181036060830152614ac881846134c8565b905095945050505050565b60008060408385031215614aea57614ae9613242565b5b600083015167ffffffffffffffff811115614b0857614b07613247565b5b614b1485828601614697565b925050602083015167ffffffffffffffff811115614b3557614b34613247565b5b614b4185828601614697565b915050925092905056fea264697066735822122036f7eb145bc320b6ba502d786f3b263e3d52f52145b768d20e435d27d7cf855664736f6c634300080e0033",
  "linkReferences": {},
  "deployedLinkReferences": {}
}